S0100000484D495F436F72652E737265634E
S315080000000050002055160008B1130008B513000863
S31508000010B9130008BD130008C1130008000000004A
S31508000020000000000000000000000000C5130008E2
S31508000030C913000800000000CD130008D1130008FA
S315080000409D1600089D1600089D1600089D160008B6
S315080000509D1600089D1600089D1600089D160008A6
S315080000609D1600089D1600089D160008D513000861
S315080000709D1600089D1600089D1600089D16000886
S315080000809D1600089D1600089D1600089D16000876
S315080000909D1600089D1600089D1600089D16000866
S315080000A09D1600089D1600089D1600089D16000856
S315080000B09D1600089D160008E11300089D16000805
S315080000C09D1600089D1600089D1600089D16000836
S315080000D09D1600089D1600089D1600089D16000826
S315080000E09D1600089D1600089D16000800000000D1
S315080000F000000000000000000000000000000000F2
S3110800010000000000000000005FF808F195
S3150800011010B5054C237833B9044B13B10448AFF333
S3150800012000800123237010BD70000020000000002D
S31508000130FC5A000808B5034B1BB103490348AFF343
S31508000140008008BD0000000074000020FC5A00086A
S31508000150034613F8012B002AFBD1181A01387047F9
S3150800016081F0004102E000BF83F0004330B54FEA5A
S3150800017041044FEA430594EA050F08BF90EA020FC7
S315080001801FBF54EA000C55EA020C7FEA645C7FEA5A
S31508000190655C00F0E2804FEA5454D4EB5555B8BF7D
S315080001A06D420CDD2C4480EA020281EA030382EAEE
S315080001B0000083EA010180EA020281EA0303362D80
S315080001C088BF30BD11F0004F4FEA01314FF4801C53
S315080001D04CEA113102D0404261EB410113F0004F65
S315080001E04FEA03334CEA133302D0524263EB43031C
S315080001F094EA050F00F0A780A4F10104D5F1200EBA
S315080002000DDB02FA0EFC22FA05F2801841F1000114
S3150800021003FA0EF2801843FA05F359410EE0A5F1E8
S3150800022020050EF1200E012A03FA0EFC28BF4CF019
S31508000230020C43FA05F3C01851EBE37101F00045CF
S3150800024007D54FF0000EDCF1000C7EEB00006EEBDC
S315080002500101B1F5801F1BD3B1F5001F0CD3490866
S315080002605FEA30004FEA3C0C04F101044FEA4452BD
S3150800027012F5800F80F09A80BCF1004F08BF5FEA44
S31508000280500C50F1000041EB045141EA050130BD24
S315080002905FEA4C0C404141EB010111F4801FA4F1C7
S315080002A00104E9D191F0000F04BF01460020B1FA1C
S315080002B081F308BF2033A3F10B03B3F120020CDA54
S315080002C00C3208DD02F1140CC2F10C0201FA0CF032
S315080002D021FA02F10CE002F11402D8BFC2F1200C97
S315080002E001FA02F120FA0CFCDCBF41EA0C0190404D
S315080002F0E41AA2BF01EB0451294330BD6FEA040496
S315080003001F3C1CDA0C340EDC04F11404C4F1200280
S3150800031020FA04F001FA02F340EA030021FA04F392
S3150800032045EA030130BDC4F10C04C4F1200220FAE9
S3150800033002F001FA04F340EA0300294630BD21FA27
S3150800034004F0294630BD94F0000F83F4801306BFED
S3150800035081F480110134013D4EE77FEA645C18BFE1
S315080003607FEA655C29D094EA050F08BF90EA020F78
S3150800037005D054EA000C04BF1946104630BD91EA70
S31508000380030F1EBF0021002030BD5FEA545C05D173
S315080003904000494128BF41F0004130BD14F58004B2
S315080003A03CBF01F5801130BD01F0004545F0FE4126
S315080003B041F470014FF0000030BD7FEA645C1ABF5B
S315080003C0194610467FEA655C1CBF0B46024650EA92
S315080003D0013406BF52EA033591EA030F41F40021BE
S315080003E030BD00BF90F0000F04BF0021704730B544
S315080003F04FF4806404F132044FF000054FF0000119
S3150800040050E700BF90F0000F04BF0021704730B5D9
S315080004104FF4806404F1320410F0004548BF4042AE
S315080004204FF000013EE700BF42004FEAE2014FEA03
S3150800043031014FEA02701FBF12F07F4393F07F4FDE
S3150800044081F06051704732F07F4208BF704793F0E1
S315080004507F4F04BF41F40021704730B54FF46074F4
S3150800046001F0004521F000411CE700BF50EA0102F7
S3150800047008BF704730B54FF000050AE050EA0102A0
S3150800048008BF704730B511F0004502D5404261EB10
S3150800049041014FF4806404F132045FEA915C3FF451
S315080004A0D8AE4FF003025FEADC0C18BF03325FEAEE
S315080004B0DC0C18BF033202EBDC02C2F1200300FA9F
S315080004C003FC20FA02F001FA03FE40EA0E0021FAC4
S315080004D002F11444BDE600BF70B54FF0FF0C4CF4B2
S315080004E0E06C1CEA11541DBF1CEA135594EA0C0F64
S315080004F095EA0C0F00F0DEF82C4481EA030621EA9F
S315080005004C5123EA4C5350EA013518BF52EA0335D9
S3150800051041F4801143F4801338D0A0FB02CE4FF08B
S315080005200005E1FB02E506F00042E0FB03E54FF0BB
S315080005300006E1FB03569CF0000F18BF4EF0010EB3
S31508000540A4F1FF04B6F5007F64F5407404D25FEAAF
S315080005504E0E6D4146EB060642EAC62141EA555162
S315080005604FEAC52040EA5E504FEACE2EB4F1FD0CA4
S3150800057088BFBCF5E06F1ED8BEF1004F08BF5FEA22
S31508000580500E50F1000041EB045170BD06F00046D4
S3150800059046EA010140EA020081EA0301B4EB5C0481
S315080005A0C2BFD4EB0C0541EA045170BD41F4801179
S315080005B04FF0000E013C00F3AB8014F1360FDEBF9E
S315080005C0002001F0004170BDC4F10004203C35DA7A
S315080005D00C341BDC04F11404C4F1200500FA05F3FD
S315080005E020FA04F001FA05F240EA020001F000429E
S315080005F021F0004110EBD37021FA04F642EB060114
S315080006005EEA430E08BF20EAD37070BDC4F10C043D
S31508000610C4F1200500FA04F320FA05F001FA04F201
S3150800062040EA020001F0004110EBD37041F10001ED
S315080006305EEA430E08BF20EAD37070BDC4F12005F8
S3150800064000FA05F24EEA020E20FA04F301FA05F260
S3150800065043EA020321FA04F001F0004121FA04F208
S3150800066020EA020000EBD3705EEA430E08BF20EAD8
S31508000670D37070BD94F0000F0FD101F00046400012
S3150800068041EB010111F4801F08BF013CF7D041EA94
S31508000690060195F0000F18BF704703F00046520098
S315080006A043EB030313F4801F08BF013DF7D043EA69
S315080006B00603704794EA0C0F0CEA135518BF95EA1F
S315080006C00C0F0CD050EA410618BF52EA4306D1D1A6
S315080006D081EA030101F000414FF0000070BD50EAC5
S315080006E0410606BF1046194652EA430619D094EA4F
S315080006F00C0F02D150EA013613D195EA0C0F05D139
S3150800070052EA03361CBF104619460AD181EA03018C
S3150800071001F0004141F0FE4141F470014FF0000044
S3150800072070BD41F0FE4141F4780170BD70B54FF0DF
S31508000730FF0C4CF4E06C1CEA11541DBF1CEA13555F
S3150800074094EA0C0F95EA0C0F00F0A7F8A4EB050441
S3150800075081EA030E52EA03354FEA013100F0888038
S315080007604FEA03334FF0805545EA131343EA126301
S315080007704FEA022245EA111545EA10654FEA0026B6
S315080007800EF000419D4208BF964244F1FD0404F56F
S31508000790407402D25B084FEA3202B61A65EB0305CB
S315080007A05B084FEA32024FF480104FF4002CB6EB88
S315080007B0020E75EB030E22BFB61A754640EA0C0008
S315080007C05B084FEA3202B6EB020E75EB030E22BF48
S315080007D0B61A754640EA5C005B084FEA3202B6EB89
S315080007E0020E75EB030E22BFB61A754640EA9C0048
S315080007F05B084FEA3202B6EB020E75EB030E22BF18
S31508000800B61A754640EADC0055EA060E18D04FEAD5
S31508000810051545EA16754FEA06164FEAC30343EA75
S3150800082052734FEAC2025FEA1C1CC0D111F4801F42
S315080008300BD141EA00014FF000004FF0004CB6E73B
S3150800084011F4801F04BF01430020B4F1FD0C88BFDA
S31508000850BCF5E06F3FF6AFAEB5EB030C04BFB6EBE5
S31508000860020C5FEA500C50F1000041EB045170BDD8
S315080008700EF0004E4EEA113114EB5C04C2BFD4EB05
S315080008800C0541EA045170BD41F480114FF0000E89
S31508000890013C90E645EA060E8DE60CEA135594EA05
S315080008A00C0F08BF95EA0C0F3FF43BAF94EA0C0F08
S315080008B00AD150EA01347FF434AF95EA0C0F7FF47D
S315080008C025AF104619462CE795EA0C0F06D152EAD1
S315080008D003353FF4FDAE1046194622E750EA4106B5
S315080008E018BF52EA43067FF4C5AE50EA41047FF4C6
S315080008F00DAF52EA43057FF4EBAE12E74A0011D278
S3150800090012F5001211D20DD56FF47873B3EB62525B
S315080009100ED44FEAC12343F0004343EA505323FA67
S3150800092002F070474FF00000704750EA013002D1DC
S315080009304FF0FF3070474FF000007047F8B5054696
S315080009400F460024561EF6B2013647FA04F2D5E9D8
S31508000950003102F0010231F8141053F82400013472
S3150800096003F0BEFCA642F0D1A98A0122286903F049
S31508000970B7FC012002F0D6FEA98A28690022BDE844
S31508000980F84003F0ADBC00BF38B504460D46806894
S31508000990A189002203F0A4FCA37D33B12946204691
S315080009A0BDE838400822FFF7C9BF0422204625FAC9
S315080009B002F1FFF7C3FF05F00F012046BDE83840F6
S315080009C00422FFF7BBBF00BF837D10B5044683B181
S315080009D03821FFF7D9FF20460121FFF7D5FF20462A
S315080009E00C21FFF7D1FF2046BDE810400621FFF78E
S315080009F0CBBF3321FFF7C8FF20463221FFF7C4FFDC
S31508000A0028212046FFF7C0FFE5E700BFF0B50646F8
S31508000A1087B0BDF8385006ACADF81450354644F8E2
S31508000A20181DBDF830C09DF83C100D9F2046029356
S31508000A3001928DF81610ADF80CC00497FFF7C4FFA5
S31508000A400FCC0FC594E8030085E80300304607B0CD
S31508000A50F0BD00BFF8B504460F46002505E031464F
S31508000A6008222046FFF76AFF01353846FFF770FB74
S31508000A70EEB2B04214D9A1890122A068BE5D03F086
S31508000A802FFCA37D3109002BE9D120460422FFF76C
S31508000A9055FF06F00F0104222046FFF74FFFE3E754
S31508000AA0F8BD00BF10B5044684B00A4601A804493B
S31508000AB004F012FC01A92046FFF7CCFF04B010BDD4
S31508000AC04C5B0008034B803A595C1144C9B2FFF7E6
S31508000AD05BBF00BF505B00080121FFF755BF00BF91
S31508000AE000224FF4807010B503214FF460241D4B8B
S31508000AF084B0CDE9012203921A731A755A601A4A0C
S31508000B00986018461A60DC61196102F0DBFF30BB99
S31508000B100123052201A91348CDE90133039202F006
S31508000B2055FEC8B9042202230DEB02010D48CDE992
S31508000B30012302F04BFE60B90922032301A90948E3
S31508000B40CDE9012302F042FE08B100F0AFFB04B084
S31508000B5010BD00F0ABFBEFE700F0A8FBE2E700F002
S31508000B60A5FBD5E7E00200200024014070B500246B
S31508000B700268284B88B09A42CDE90444CDE9064478
S31508000B8001D008B070BD1221032503F56C439A699C
S31508000B90064642F400729A619A691F4802F4007286
S31508000BA00192019A9A6942F004029A619A6902F0DE
S31508000BB004020292029A9A6942F008029A619B69B3
S31508000BC0049103F00803039304A9039B059503F016
S31508000BD08DFA022304A91148CDE9043503F086FAF3
S31508000BE080204FF400724FF400630D4D0D49E86004
S31508000BF02846C5E90144C5E906442960C5E9042330
S31508000C0003F066F918B935626E6208B070BD00F077
S31508000C104DFBF8E70024014000080140000C0140A4
S31508000C20100300200800024010B5002210240B4BC8
S31508000C300B491846C3E90014C3E90222C3E9042292
S31508000C401A765A769A76DA761A775A7703F050F839
S31508000C5000B910BDBDE8104000F028BB54030020C1
S31508000C6000640040002310B501681E4A86B0914210
S31508000C70CDE90233CDE9043301D006B010BD4FF4F7
S31508000C80807403F1804303F50433DA6902A942F05C
S31508000C900072DA61DA69144802F000720092009A6A
S31508000CA09A6942F008029A619B69029403F0080364
S31508000CB00193019B4FF4007403F018FA02220323F0
S31508000CC002A90948CDE90242059303F00FFA074A3B
S31508000CD0536823F4C04343F0E06343F4804353600E
S31508000CE006B010BD00640040000C01400000014041
S31508000CF000220B4B10B55C6982B044F001045C61BC
S31508000D005B69114603F0010301930B20019B03F075
S31508000D1083F80B2002B0BDE8104003F0B3B800BF5B
S31508000D20001002402DE9F0410024012288B0CDE9E7
S31508000D300444CDE90644294B294E9969294F41F0C7
S31508000D40200199619869114600F0200001900198E8
S31508000D509D69304645F004059D619D694FF002087E
S31508000D6005F004050295029D9D6945F008059D61FB
S31508000D709B69154603F008030393039B03F0B0FA37
S31508000D80224630464FF6F84103F0AAFA224638467C
S31508000D904FF4807103F0A4FA032304A9304607939D
S31508000DA00694CDE9045503F0A1F94FF6F843304609
S31508000DB004A90493CDE90554CDF81C8003F096F9EF
S31508000DC04FF4807304A93846CDE90554CDF81C8044
S31508000DD0049303F08BF908B0BDE8F08100100240D7
S31508000DE0000C0140000801402DE9F04F1324304D56
S31508000DF083B02C70002B59D05C1E0192884607469A
S31508000E00E4B22C4EDFF8B0B0DFF8B0A00DE004284D
S31508000E102DD001225946504602F078F9002C45D0CB
S31508000E202B78002B42D0013CE4B2032239463046E7
S31508000E3002F09AF9814628700028E8D11D4B304601
S31508000E40D96802F093FB28704046FFF781F94B46B4
S31508000E5082B24146304602F047FA2870304602F020
S31508000E6077FB287000BB012003B0BDE8F08F08228D
S31508000E703946304602F078F9814628700028C8D1EC
S31508000E80304602F065FB394603222870304602F0E8
S31508000E906BF928700198FFF75BF94B4682B2019906
S31508000EA0304602F021FACEE7002CBCD10020DBE761
S31508000EB0D0050020D4050020585B00087C030020DC
S31508000EC030B50122002402254FF480334FF4E01197
S31508000ED095B00AA80A920E920B93129313910C944A
S31508000EE0059401940D94CDE90F44CDE90644CDE966
S31508000EF00844CDE902440494119503F0FBF90F2246
S31508000F004FF48063294605A805920893CDE906544F
S31508000F10099403F01DFC4FF4004301A801950393BF
S31508000F2003F0D6FC15B030BD2DE9F04100260024AB
S31508000F30ADF52A7D31463C221BA8734D1A9604F05E
S31508000F40C3F902F0CBFBFFF7BBFFFFF7EBFEFFF79A
S31508000F506BFE00F0ADF900F003FB00F0E5FAFFF7D1
S31508000F60C7FEFFF7BDFD00F087FA684B6848C3E97E
S31508000F70004502F04DFE01226649674802F0C6F8B0
S31508000F80664DDFF8C081012288F80000082128464E
S31508000F9003F0A6F94FF4806E4FF4006C604B07AC73
S31508000FA0CDF808E00396019503F110070FCB84E806
S31508000FB00F0097E8030005AA82E803002B4621469E
S31508000FC0CDF800C00BA8FFF721FD0BA85549FFF780
S31508000FD041FD2AAC544803F0F7FE2346AAAA191B7A
S31508000FE003F8011B9342FAD1132308224F4911A88B
S31508000FF088F8003002F0B8F888F8000011A802F066
S31508001000A7FA032288F80000484911A802F0ACF8AC
S31508001010214688F8000000234FF4007211A802F058
S3150800102063F988F8000011A802F092FA0024404FEC
S31508001030404E3A4D88F8000002F06EFB001BB0F5F2
S315080010407A7FF9D302F068FB04460122402128463C
S3150800105003F046F90BA8FFF73FFD224636491AA8C2
S3150800106004F03AF900220BA81146FFF72BFD1AA93E
S315080010700BA8FFF7EFFC002201210BA8FFF722FDC2
S31508001080D7E90001FFF73AFC01460BA8FFF70AFD6E
S31508001090082201210BA8FFF715FDD6E90001FFF785
S315080010A02DFC01460BA8FFF7FDFCD7E90001FFF769
S315080010B025FC8046D6E90001FFF720FC4346009050
S315080010C022461E491AA804F007F902F025FB44F641
S315080010D02063984205D800224021284603F000F9EB
S315080010E0AAE703230B4A1AA91548FFF77DFE00282D
S315080010F0F1D128460122202103F0F2F810212846D2
S3150800110003F0F2F8E7E700BF00003540A80000202A
S31508001110E0020020585B00087C030020000C014018
S31508001120145B0008545B0008500600205C5B00084E
S31508001130B8000020A0000020645B0008685B000877
S31508001140785B0008D005002028B1002300BF0133D2
S315080011509AB29042FAD870472DE9F84F02684A4B7E
S315080011609A4201D0BDE8F88F484C012280214848B0
S3150800117003F0B6F82088FFF735F98046A088894637
S31508001180FFF730F936A3D3E90023FFF7A5F936A30D
S31508001190D3E90023FFF7CAFA3E4B3F4DD3E90023B4
S315080011A0FFF7C4FA32A3D3E90023FFF7BFFA2CA34B
S315080011B0D3E9002306460F46DFF8E4C04046CCE9EB
S315080011C000674946FFF788F927A3D3E90023FFF705
S315080011D0ADFA29A3D3E9002380468946D5E900015B
S315080011E0DFF8C0C0CCE90089FFF776F924A3D3E974
S315080011F0002382468B4640464946FFF76DF902466C
S315080012000B4650465946FEF7B1FF1BA3D3E9002308
S31508001210DFF894A0C5E90001DAE90001FFF75CF9F7
S3150800122017A3D3E900238046894630463946FFF797
S3150800123053F90B46024649464046FEF797FF0322F6
S31508001240CAE900012146154802F08EFBBDE8F84FB1
S31508001250002280210E4803F043B800BFAFF3008098
S315080012600000000000C8A9400000000000FEAF40D2
S315080012709A9999999999A93FCDCCCCCCCCCCEC3FED
S315080012809A9999999999B93F000800408C000020CD
S31508001290000C0140A8000020B8000020E002002051
S315080012A098000020B0000020A0000020704700BF72
S315080012B070B54FF4827600224FF4007528240A216F
S315080012C00B4B0C48C3E90654C3E900061846D96215
S315080012D0C3E90222C3E90422C3E908229A6203F099
S315080012E027FD00B970BDBDE87040FFF7DFBF00BF3E
S315080012F0F80500200030014070B500240268194B3B
S3150800130086B09A42CDE90244CDE9044401D006B03C
S3150800131070BDA0210226032503F560439A69124889
S3150800132042F480529A619A6902F480520092009AB5
S315080013309A6942F004029A619B69029103F00403D8
S31508001340019302A9019B0396059502F0CFFE40235F
S3150800135002A90548CDE90344029302F0C7FE06B088
S3150800136070BD00BF00300140000801400E4B82B03E
S315080013709A690E4942F001029A619A6902F00102DD
S315080013800092009ADA6942F08052DA61DB6903F06A
S3150800139080530193019B4B6823F0E06343F000738D
S315080013A04B6002B0704700BF0010024000000140C9
S315080013B0704700BFFEE700BFFEE700BFFEE700BFBD
S315080013C0FEE700BF704700BF704700BF704700BF09
S315080013D002F096B9014802F0F3BD00BF10030020E1
S315080013E0014803F0AFBD00BF500600200C4A08B5FF
S315080013F0136833B169461844884209D810601846FC
S3150800140008BD08490B461160694618448842F5D953
S3150800141003F030FF0C224FF0FF330260184608BD78
S31508001420C00000201807002030B44FF41F054FF005
S3150800143000640E4B0E4A19680E4841F00101196006
S3150800144059680A405A601A6822F0847222F4803277
S315080014501A601A6822F480221A605A6822F4FE0278
S315080014605A609D60846030BC704700BF001002401F
S315080014700000FFF800ED00E00023472010B58021AA
S3150800148040F2E734164A86B002930093CDE9033357
S315080014900593019393601361124BD460C2E900303F
S315080014A01046916103F034FEB0B94FF4805302A997
S315080014B00B48029303F098FC58B90023694608487C
S315080014C0CDE9003303F040FE08B1FFF7EFFE06B0A2
S315080014D010BDFFF7EBFEF0E7FFF7E8FEE5E700BF14
S315080014E0500600200008004002680E4B9A4200D0C1
S315080014F07047002203F5023310B5DC6982B044F068
S315080015000404DC61DB69114603F0040301931E2021
S31508001510019B02F081FC1E2002B0BDE8104002F0DB
S31508001520B1BC00BF0008004038B500224FF4E135D1
S315080015300C21094B094C1846C3E900455961C3E912
S3150800154002221A61C3E9062203F064FE00B938BD17
S31508001550BDE83840FFF7AABE9006002000380140D3
S3150800156038B500224FF4E1350C21094B094C1846D1
S31508001570C3E900455961C3E902221A61C3E9062293
S3150800158003F048FE00B938BDBDE83840FFF78EBE07
S31508001590D00600200044004070B500240368294A9C
S315080015A088B09342CDE90444CDE9064429D0264AB9
S315080015B0934201D008B070BD042102260325234BAF
S315080015C02348DA6942F40032DA61DA6902F4003251
S315080015D00292029A9A690A439A619B6904910B409E
S315080015E0039304A9039B0596079502F07FFD08233C
S315080015F004A91748CDE90544049302F077FD08B01D
S3150800160070BD4FF4007102260325104B10489A69E5
S3150800161042F480429A619A6902F480420092009AE2
S315080016209A6942F004029A619B69049103F00403E3
S31508001630019304A9019B0596079502F057FD4FF4FF
S315080016408063D5E70038014000440040001002409E
S3150800165000080140002103E00B4B5B58435004315E
S315080016600A480B4B42189A42F6D30A4A02E000236C
S3150800167042F8043B084B9A42F9D3FFF7D5FE03F02C
S31508001680FFFDFFF751FC7047FC5B000800000020D7
S31508001690700000207000002018070020FEE70000F8
S315080016A02DE9F047124F134E82B0BA46B14641F2C1
S315080016B08834DFF8448006E0013C4FF47A70A4B21F
S315080016C0FFF742FD84B16423FF2500934A460123B0
S315080016D0514640463D7003F06BFB3378AB42EBD185
S315080016E0012002B0BDE8F087204602B0BDE8F087C9
S315080016F0CC000020C8000020F8050020012230B5E3
S31508001700114683B0074802F0EBFD6423FF25064C1B
S31508001710009321460123054A0548257003F048FB36
S3150800172003B030BD000C0140CC000020C8000020EA
S31508001730F805002030B5002285B001210C4802F0DA
S31508001740CFFD6423FF250B4C0093214601230A4A4B
S315080017500A48257003F02CFBFFF7A2FF10B1012001
S3150800176005B030BD0390FFF7C9FF039805B030BD3B
S31508001770000C0140CC000020C8000020F80500201D
S315080017802DE9F0438846010683B0074600F18180BB
S315080017900C2F05D0FFF7B2FFFFF7CCFF002863D068
S315080017A06424404D404E47F0400C294632460123FA
S315080017B000943E4885F800C003F0FAFA4FEA186C20
S315080017C03246294601230094384885F800C003F0BC
S315080017D0EFFA4FEA184C324629460123009433485B
S315080017E085F800C003F0E4FA4FEA182C3246294679
S315080017F0012300942D4885F800C003F0D9FA009417
S31508001800324629460123294885F8008003F0D0FA94
S3150800181037B3082F2CD1872701230094324629464F
S3150800182022482F7003F0C4FA0A24DFF87C90DFF808
S3150800183074801E4F64234FF0FF0C00934A46012321
S315080018404146384685F800C003F0B2FA3078631E80
S31508001850020602D513F0FF04ECD103B0BDE8F0830D
S31508001860952700940123D9E7FF2003B0BDE8F0834C
S315080018704FF0010800944346324629460B4885F83E
S31508001880008003F095FA0C2FCED1FF27009443462B
S31508001890C4E700213720FFF773FF0128DDD807F0DA
S315080018A07F0775E7CC000020C8000020F805002057
S315080018B02DE9F04F2D4C2E4D83B006468B46A24699
S315080018C0A9464FF4FA67DFF8AC8006E0013F4FF40B
S315080018D07A70BFB2FFF738FC87B164234FF0FF0C6C
S315080018E000934A4601235146404684F800C003F057
S315080018F05FFA2B78FF2BE9D0FE2B03D0002003B02C
S31508001900BDE8F08F0BF1FF37BFB20137DFF860B0E3
S31508001910DFF858A037444FF064094FF0FF08012359
S31508001920CDF800905A465146124884F8008003F0D4
S315080019303FFA2B7806F8013BB742ECD1CDF8009078
S3150800194001230B4A09490B4884F8008003F030FA52
S31508001950CDF800900123064A0449064884F8008019
S3150800196003F026FA012003B0BDE8F08FCC00002072
S31508001970C8000020F80500202DE9F04F83B0044682
S315080019800D46FFF78DFE10B903B0BDE8F08F64234E
S31508001990244E009331460123234A2448357003F028
S315080019A007FAFD2D3AD0DFF880B0B246D946DFF8FF
S315080019B07C8004F50077642514F801CB0123009593
S315080019C04A465146404686F800C003F0F1F9BC4243
S315080019D0F1D1FF2400950123134A124913483470A4
S315080019E003F0E6F9009501230F4A0E490F483470B3
S315080019F003F0DEF9009501230B4A0A490B483470B7
S31508001A0003F0D6F99BF8000000F01F00A0F10500CE
S31508001A10B0FA80F0400903B0BDE8F08F012003B0AA
S31508001A20BDE8F08FCC000020C8000020F805002093
S31508001A3048BB2DE9F04F6E4D87B0287882071FD432
S31508001A406C4C0A26A246DFF8B491DFF8B481642309
S31508001A50FF2700934A460123514640462770013E18
S31508001A6003F0A6F93E40F2D131463046FFF788FE2C
S31508001A700128074609D0604B1E70FFF73FFE2878FD
S31508001A8007B0BDE8F08F012070474FF4D5710820E4
S31508001A90FFF776FE012826D1584F05ABBB461E46F2
S31508001AA0DFF85091DFF8588103930DF1180A642383
S31508001AB04FF0FF0C00935A4601234946404684F8E6
S31508001AC000C003F075F93B7806F8013BB245EED144
S31508001AD09DF81630012B3AD00022474B1A70FFF7B3
S31508001AE00DFE2878CCE73146A920FFF749FE0128E4
S31508001AF096BFA9274FF001084FF002084FF47A74F1
S31508001B0005E0013C0120A4B201F00CFECCB1002195
S31508001B103846FFF735FE0028F3D106464FF4007124
S31508001B201020FFF72DFE0028A5D1334B83F800803F
S31508001B30FFF7E4FD287800F0FE00287007B0BDE83E
S31508001B40F08F2D4B1C70FFF7D9FD287898E79DF884
S31508001B501730AA2BC0D14FF47A78334646469846B2
S31508001B6006E0012001F0DEFD731E9EB2002E38D07D
S31508001B704FF08041A920FFF703FE0028F1D18146E6
S31508001B8001463A204646FFF7FBFD30B11A4B83F86B
S31508001B900090FFF7B3FD287872E7DFF860A0DFF85A
S31508001BA05490DFF85C80DDF80CB064234FF0FF0C2E
S31508001BB00093524601234946404684F800C003F084
S31508001BC0F7F83B780BF8013BB345EED19DF8143096
S31508001BD05B064CBF0C220422074B1A70FFF78EFDDA
S31508001BE0A8E7054B1E70FFF789FD287848E700BF70
S31508001BF004000020CC000020C4000020C8000020FB
S31508001C00F805002010B9024B187870470120704774
S31508001C100400002070B5C8B91C46BBB1184B1B7828
S31508001C20D8072AD4174B0D461B781B0758BF5202F4
S31508001C30022C34BF1126122611463046FFF7A0FDA6
S31508001C4050B10124FFF75AFD204670BD04242046F2
S31508001C5070BD05F500754CB14FF400712846FFF7C5
S31508001C6027FE013CA4B20028F3D10124122EE9D1A3
S31508001C7000210C20FFF784FDE4E70324204670BD0D
S31508001C8004000020C400002030B583B0E8B91C4623
S31508001C90DBB1294B1B78DD0730D4580732D4274BE4
S31508001CA00D461B78190758BF5202012C35D013F080
S31508001CB0060F2BD111461920FFF762FD68B10124E2
S31508001CC0FFF71CFD204603B030BD0424204603B0B0
S31508001CD030BD9CB205F5007534B1FC212846FFF7E6
S31508001CE04BFE631E0028F4D1FD210020FFF744FEB9
S31508001CF00028E4D0003418BF0124E1E70324204675
S31508001D0003B030BD0224204603B030BD21469720DB
S31508001D100192FFF735FD019ACCE711461820FFF727
S31508001D202FFD0028CBD12846FE21FFF725FEB0FA65
S31508001D3080F46409C4E700BF04000020C400002042
S31508001D402DE9F04786B0B0B9944B1B78DB070DD464
S31508001D5015460E2900F2CD80DFE801F0A472CB3BD0
S31508001D60CBCBCBCBCBCBBEAFC31B120003242046B9
S31508001D7006B0BDE8F0870424204606B0BDE8F08723
S31508001D8000218D20FFF7FCFC002800F0D8800124F4
S31508001D908DE000213A20FFF7F3FC0028F7D1804FA9
S31508001DA0804CBA46A146DFF804822E1D64234FF004
S31508001DB0FF0C00934A4601235146404687F800C067
S31508001DC002F0F6FF237805F8013BAE42EED1002477
S31508001DD06DE0754E317811F0040100F08C80002119
S31508001DE08D20FFF7CDFC0028D1D16423FF246C4F4A
S31508001DF00093394601236B4A6C483C7002F0D8FFC1
S31508001E00102102A8FFF754FD0028C0D03024BA4696
S31508001E10DFF89091DFF894816423FF2600934A4601
S31508001E200123514640463E70013C02F0C1FF344052
S31508001E30F2D110239DF81220120993402B6036E048
S31508001E4000210920FFF79CFC044600289FD1102199
S31508001E5002A8FFF72DFD002899D09DF808309B09A8
S31508001E60012B7FD09DF80F309DF810609DF80E006D
S31508001E709DF80D209DF811109B0003EB96139DF815
S31508001E801260800202F00F02490000F4406002EB83
S31508001E90D61201F0060103440A440133073A934077
S31508001EA02B6004E0FFF746FCB0FA80F46409FFF7FC
S31508001EB025FC204606B0BDE8F08700210920FFF77B
S31508001EC05FFC00287FF463AF28461021FFF7F0FC7B
S31508001ED0B0FA80F46409EAE7334B00241B781370E0
S31508001EE0E5E700210A20FFF74BFC00287FF44FAFF7
S31508001EF0EAE70424DBE70920FFF742FC0746002847
S31508001F007FF445AF102102A8FFF7D2FC00283FF462
S31508001F103EAF33789DF8122013F002049DF81300A3
S31508001F2030D053009DF8152003F07E0303EBD01341
S31508001F3092090133013A93403C462B60B7E7642384
S31508001F40FF2417480093014604700123154A1748D1
S31508001F5002F02EFF28464021FFF7AAFCB0FA80F4CB
S31508001F606409A4E79DF80F209DF8101012049DF847
S31508001F70113002F47C12013203EB012313449B0255
S31508001F802B6094E7C100C2F3840301F01802013301
S31508001F9002EB501202FB03332B6088E70400002093
S31508001FA0CC000020C8000020C4000020F80500204E
S31508001FB030B40468D4B125781F2D0AD93A2D15D026
S31508001FC0234602E03A2A07D00B465A78591C1F2A9C
S31508001FD0F8D8002030BC70470134A14206D1302D14
S31508001FE004D130BC02330360002070474FF0FF3045
S31508001FF030BC704788B108B503682BB11A781AB196
S315080020008288D988914201D0092008BD5878FFF7FF
S31508002010F9FD10F00100F7D108BD0920704700BF8F
S31508002020F8B5C66A00F130070446324639464078A4
S315080020300123FFF729FEB8B9226AA369B21A9A42A0
S3150800204020710FD2E578012D01D80BE0A3691E4453
S31508002050013D3246012339466078ADB2FFF714FEDA
S31508002060012DF3D10020F8BD0120F8BDF8B503799C
S3150800207005465BB92B78032B0FD0002268781146EA
S31508002080FFF75EFE003018BF0120F8BDFFF7C8FF56
S315080020900028FAD12B78032BEFD16B79012BECD1E1
S315080020A005F130010B46002405F50C7203F8014BC7
S315080020B09342FBD14AF65526D5E90330C0F30727E4
S315080020C085F8180285F81972070C000E85F81B02A8
S315080020D0C3F30720EA6985F81C3285F81D02180C37
S315080020E01B0E85F81E0285F81F320848084B013278
S315080020F02863C5F8143285F81A72EA62A5F82E62C2
S3150800210001236878FFF7C0FD6C71B6E7525261414A
S315080021107272416138B5037904460D4613B1FFF76B
S315080021207FFF68B92A46012304F130016078FFF77A
S3150800213071FD002816BF4FF0FF3500200120E5622B
S3150800214038BD00BF4FF0FF330022994210B5044650
S315080021500271C3621AD14AF6552294F82F1294F8DE
S315080021602E3243EA012393420ED1D4F866300B4A45
S3150800217023F07F4393420FD0D4F8820020F07F40AB
S31508002180801A18BF012010BD022010BDFFF7C2FF3C
S315080021900028E0D0032010BD002010BD46415400A1
S315080021A02DE9F0410023074684B008463B601646F1
S315080021B0FFF7FEFE051EC0F2B580994B53F8254081
S315080021C0002C00F0D4803C6023787BB16078FFF760
S315080021D019FDC3070AD4002E00F0D68010F00400BB
S315080021E000F0A1800A2004B0BDE8F0810023E8B21F
S315080021F060702370FFF71CFCC70700F197800EB1CB
S315080022004507EFD400212046FFF79CFF012800F080
S315080022109180032800F0B6800646002840F0A38087
S3150800222094F83C2094F83B3043EA0223B3F5007F48
S3150800223040F0998094F8472094F8463053EA0223F0
S3150800224094F8402008BF636D511E0129A361E2700E
S3150800225000F2898094F83D10A170002900F083806F
S31508002260481E08427FD194F8420094F8415045EA46
S3150800227000252807258176D194F8447094F8430000
S3150800228094F83FC050EA072094F83E7008BF206DC6
S3150800229057EA0C2C67D003FB02F20CEB1517174410
S315080022A0B84260D3C01BB0FBF1F100295BD040F601
S315080022B0F57E4FF6F5780CEB0600374471458CBF72
S315080022C04FF0020E4FF0010E01F1020C4145C4F821
S315080022D014C0C4E90760A76258D9002D43D14FEA54
S315080022E08C02E16D02F2FF12B3EB522F61623AD310
S315080022F04FF0FF32802194F8610094F86030226133
S3150800230043EA0023012BE26061715DD04FF0030EB2
S31508002310444A84F800E01388002001339BB21380F6
S31508002320E38000E00B2004B0BDE8F081032004B090
S31508002330BDE8F0816D46294604F5FB7304F23620A4
S3150800234013F8042C02B11A681033834241F8042B9F
S31508002350F6D105F1100755F8046B66B90220BD429F
S31508002360F9D103280ED00D2004B0BDE8F0810C2069
S3150800237004B0BDE8F08131462046FFF7E3FE0028A9
S31508002380EDD14DE70120CEE73046CCE7002DEAD067
S315080023900244BEF1020F626213D04FF0010E0CEB3D
S315080023A04C010CF0010202EB510202F2FF12B3EBF0
S315080023B0522FD8D34FF0FF338022C4E9033362711A
S315080023C0A6E74FEA4C02F0E7E36A711C994204D08B
S315080023D02046FFF79FFE002898D14AF6552200208E
S315080023E094F82F1294F82E32607143EA012393422F
S315080023F08CD10D4B226B9A4288D103F1FF5303F51A
S315080024000053D4F8142220339A427FF47FAFD4F8CD
S315080024101822D4F81C324FF0030EC4E9033277E7CA
S31508002420D0000020D400002052526141F8B503784C
S315080024300646022B0C4640D0032B23D0012B01D095
S315080024400120F8BD8DB205EB5505036AADB2C26A27
S3150800245003EB552191424BD16F1CBFB2C5F308055A
S3150800246003EB57213544914295F8305047D1C7F3CD
S3150800247008073E4496F83000E30745EA002044D5AD
S315080024800009F8BD016AC36A01EBD411994228D143
S31508002490A40004F4FE7404F1300333449878D97820
S315080024A0344494F83020000440EA01605B78104315
S315080024B040EA032020F07040F8BD016AC36A01EBC8
S315080024C01421994202D0FFF725FE70B9640004F47E
S315080024D0FF74264496F8313096F8300040EA032017
S315080024E0F8BDFFF717FE0028D2D04FF0FF30F8BD31
S315080024F0FFF710FE0028F8D1336AF26AACE73046D7
S31508002500FFF708FE0028B2D0EFE7C0F30B00F8BDCE
S3150800251070B505468068E98001281ED02B685A697F
S3150800252082421AD90C46D0B19E783601B44230D3CD
S31508002530012812D9824210D901E0A64229D80146BB
S315080025401846FFF773FFA41B431CA4B22CD001281E
S3150800255003D92B685A698242EFD8022070BD1978D0
S31508002560032911D01A89A242F7D95A6AE860002AC3
S31508002570F3D004F00F00303303EB401302EB1414CE
S31508002580C5E90443002070BD596A0029EAD0084607
S31508002590CAE7023A811E914201D3E860DDE79A78DC
S315080025A09E6A01FB0262E1E7012070BD2DE9F04158
S315080025B003780446022B0D46174659D0032B36D00E
S315080025C0012B02D00220BDE8F0818EB206EB56063A
S315080025D0036AB6B2C26A03EB5621914261D106F18B
S315080025E001081FFA88F803EB5821EB07C6F308061B
S315080025F063D50120264496F830308A4203F00F034B
S3150800260043EA071386F83030207104D02046FFF7D6
S3150800261081FD0028D7D1C8F30808C7F30712A044DC
S31508002620012388F8302023710020BDE8F081016A73
S31508002630C36A01EBD51199423AD10126AD0005F4DA
S31508002640FE7505F130012144CB7825441B0603F0BD
S31508002650704343EA070285F83020C2F30720130CBB
S31508002660120E48708B70CA7026710020BDE8F08182
S31508002670016AC36A01EB1521994203D0FFF74AFDA7
S315080026800028A0D101239D4005F4FF752544C7F312
S31508002690072285F8307085F8312023710020BDE8BF
S315080026A0F081FFF737FD00288DD1236AE26A96E7A5
S315080026B0FFF730FD0028C0D085E7012326448A426B
S315080026C086F8307023710AD1C8F30808A04498F830
S315080026D03020C7F3032722F00F023A43A0E720462B
S315080026E0FFF718FD00287FF46EAFEDE7F8B505464D
S315080026F00F46F1B9C668436966BB0126344610E041
S31508002700012E2BD9022B11D9022421462846FFF780
S315080027108DFE30B3411C30D0012807D0A6421DD00B
S315080027206B6901349C42EBD2012CEED80124204679
S31508002730F8BD0129FAD943699942F7D2FFF776FE1F
S3150800274001280446F2D9013017D06B69A342EED8A6
S315080027503E46D3E79E4228BF0126CFE700242046FF
S31508002760F8BD6B69A342E1D96FF07042214628464D
S31508002770FFF71CFF28B10128D8D14FF0FF342046B7
S31508002780F8BD5FB1012FD1D96B699F42CED23946C8
S3150800279022462846FFF70AFF0028ECD12B69EC6091
S315080027A05A1CC4D06A79013B42F001022B616A7156
S315080027B0BDE700BF2DE9F047C4880134A4B2002C58
S315080027C03BD00369002B38D014F00F0705460E4698
S315080027D0006827D1E96801332B6159B38378013B37
S315080027E013EA14131ED101292AD94369994227D21B
S315080027F0FFF71CFE0128804622D9B0F1FF3F60D0C2
S315080028002868436943451DD9A8F10206023B9E4242
S3150800281028BF0026C5F80C803EBF8378826A06FB6F
S3150800282003262E61303000EB47106861EC800020EB
S31508002830BDE8F0870389A342F4D80420BDE8F087F1
S315080028400220FBE7002EF8D0E968FFF74FFF804625
S31508002850002838D00128F3D0B0F1FF3F31D02968DD
S315080028600B79002B39D1002201F1300301F50C71E7
S3150800287003F8012B8B42FBD12968A8F102064B69A4
S315080028808A78023B9E422EBF00238B6A06FB0233E0
S31508002890CB62D2B14FF0000A4FF0010906E0296871
S315080028A0CB6A8A7801335245CB620FD981F80490F6
S315080028B00846FFF7B5FB0AF1010A1FFA8AFA00284B
S315080028C0EDD00120BAE70720B8E79246CB6A08465A
S315080028D0A3EB0A02CA624B6998E70846FFF7A0FB12
S315080028E00028EED12968BEE770B504460D4663692F
S315080028F09D4221D2012D21D929462046FFF796FD72
S315080029000646C8B1012819D0411C19D063699D42F1
S3150800291014D2294600222046FFF748FE68B92369E3
S3150800292035465A1CE3D0013362792361636942F064
S3150800293001029D426271DDD3002070BD022070BD88
S315080029400120FAE72DE9F84F4FF6FF73FF270446F3
S315080029501E463D46038408E00F282FD0FF2526840F
S3150800296000212046FFF726FF30BB20682169C36A8D
S31508002970994202D0FFF7CEFBF0B961690A78002ABE
S3150800298000F08480E52AE9D0CB7A03F03F001B07E4
S31508002990E2D40F2812D005B3A369D87AC007DDD4CC
S315080029A003F10B0501E011F8012F13F8010B904212
S315080029B0D4D1AB42F7D10020BDE8F88FE369002BEC
S315080029C0CED050061BD5E0884F7B02F0BF05208489
S315080029D04A7BBA4217D0FF25C2E70846944601F15A
S315080029E00A0E01E010F801CFEB0143EA55036344F0
S315080029F0864503F0FF05F5D1BD42CDD1DBE7AA42F6
S31508002A00E6D0FF25ACE7C87E8A7E52EA0022E2D1EC
S31508002A10012091F80090DFF8B0E009F03F02013A92
S31508002A2002EB420C02EB8C0282461FFA82FC0EF184
S31508002A300C081FE0BCF1FE0FCDD80CF101007F2A6F
S31508002A401FFA80FB33F81C0023D8A2F1610CBCF1F5
S31508002A50190F9ABF22F0200C1FFA8CFC94467F2887
S31508002A601BD900208445B6D19246DC46F0451DD0D8
S31508002A701EF8010F0A1892F801B00A5C42EA0B2206
S31508002A80BAF1000FD6D1B242F0D0A4E70420BDE8CF
S31508002A90F88F7F28E8D84FF0000CA0F1610ABAF148
S31508002AA0190FDFD820F0200080B2DBE719F0400FBD
S31508002AB006D0BAF1000F03D033F81C30002B8AD1A8
S31508002AC06B1EDDB24CE700BF9C5B00082DE9F04F9A
S31508002AD0876989B03B460446D0F81C8005AA07F1E9
S31508002AE00C0013F8011B834202F8011BF9D19DF86B
S31508002AF01F30DA07009340F1968000234FF0010A51
S31508002B00B84EFB7207F1FF39E36107F10A0B4A4633
S31508002B101FFA8AF305A911F8010B02F8010F93456C
S31508002B20F9D1BAF1050F19D9A8F1020535F8021F2E
S31508002B30524691B1102301F0010000EB4202013B1D
S31508002B4012F4803F9BB24FEA510118BF7240002B26
S31508002B50F1D135F8021F0029ECD193B2072103F011
S31508002B600F0505F13000392808AA0A4401F1FF3C8F
S31508002B7088BF05F13700C3F30F131FFA8CF102F86B
S31508002B80140C002BEBD17E2008AA0A4402F8140C78
S31508002B90002900F098803A78202A00F094804D1E8B
S31508002BA00AE01C2A14D99C460CF1010293B29942F8
S31508002BB012D9FA5C202A0FD002F17F0C5FFA8CFC3E
S31508002BC02032581CBCF11E0FD2B21FFA80FCE8D87E
S31508002BD0AB42E9D101E00346581C072908AA0A4472
S31508002BE08CBF202212F8142C01F1010580B298BF7F
S31508002BF0A9B20728FA54EED900212046FFF788FC27
S31508002C0050B92046FFF79EFE30B90AF1010ABAF11B
S31508002C10640F7FF47CAF73E0042805464FD1009B10
S31508002C20FB72C4F81C80009B9B074ED400212046EB
S31508002C30FFF76EFC0126054600285FD1074607E028
S31508002C409BB1002701212046FFF7B4FD00285CD17F
S31508002C5020682169C36A994203D0FFF75BFA002806
S31508002C6053D163691B78E52BEAD10137BFB2BE425F
S31508002C70E8D1013EB3B20093002B51D120682169F7
S31508002C80C36A994243D10021636903F1200203F81C
S31508002C90011B9342FBD1D4E9052303F10B00013A4A
S31508002CA013F8011B834202F8011FF9D10122D4E966
S31508002CB00513DB7A03F018030B7323681A71284689
S31508002CC009B0BDE8F08F012087E7B8F80030002B7F
S31508002CD0ACD0002301339BB238F81320002AF9D16F
S31508002CE0414A03F1190600212046A2FB0636FFF7E2
S31508002CF00FFCC6F38F06054600289FD0042DDED1AB
S31508002D000725284609B0BDE8F08F0546F6E7FFF720
S31508002D1001FA0028B7D00546284609B0BDE8F08F65
S31508002D20E188009B2046C91A89B2FFF7F1FB002803
S31508002D30F1D1A169834601F10B004FEACB1311F8D3
S31508002D40012B43EA5B031344814203F0FF0BF4D1E2
S31508002D50019520682169C36A994203D0FFF7DAF919
S31508002D600028D8D10F2000229DF800A067690AF133
S31508002D70FF3303EB4301D4F81C8003EB8103F8729D
S31508002D804FF0000099B2012513464FF6FF79DFF898
S31508002D905CE087F80DB03873B876F8764A4503F1E3
S31508002DA001031ABF4E1C38F811200E4699B201F1DC
S31508002DB0FF3118BFB6B2714407EB050C100A7A55F5
S31508002DC09BB28CF801003AB90C2B18D811F8015FA0
S31508002DD04FF6FF720133EFE70C2B09D831461EF880
S31508002DE00350DBE7211001004FECC44E9C5B000842
S31508002DF04FF6FF739A4202D038F816300BB94AF0EC
S31508002E00400A012287F800A0236800211A7120468B
S31508002E10FFF7D0FC00287FF47EAF009B013B9BB2F6
S31508002E200093002B95D1019D28E700BF2DE9F843B3
S31508002E300B780C462F2B054654D05C2B52D0002617
S31508002E40AE6023781F2B02D852E014F8013F2F2BCF
S31508002E50FBD05C2BF9D099B21F2940D92F293ED037
S31508002E605C293CD003F17F02D2B21E2A37D920331F
S31508002E70DBB21C2B33D97F2931D8EF6922292646A4
S31508002E80A7F102004FF0010C29D02A239D4A8B4254
S31508002E9025D012F8013F002BF9D120F8021F16F8A9
S31508002EA0012F0CF1010391B21F299BB240F2FF805A
S31508002EB02F2924D05C2922D0B3F5807F0FD002F1C8
S31508002EC07F0C5FFA8CFCBCF11E0F08D92032D2B2F7
S31508002ED01C2A04D97F2902D822299C46D5D1062046
S31508002EE0BDE8F88300260134AE6023781F2BAED8E0
S31508002EF031462846FFF70CFB6E61BDE8F8830026CD
S31508002F001C44624607EB4C001FFA8CF330F8021D8E
S31508002F10202901D02E2904D1013A93B2002BF5D1EC
S31508002F20DDE70020A96927F81200202201F10B002D
S31508002F3001F8012B8142FBD1002100E001318AB260
S31508002F4037F8122088B2202AF8D02E2AF6D008B1EF
S31508002F5046F003066FF0004E03EB0E0137F811102A
S31508002F6003F1FF3C2E2903D01FFA8CF3002BF3D173
S31508002F704FF0000C4FF0080E6146013080B2A2B344
S31508002F80202A7FD02E2A00F08280F44525D283425B
S31508002F907FD07F2A00F28E802B2A00F08D804FF09A
S31508002FA02C08DFF86491424500F0868019F8018FF5
S31508002FB0B8F1000FF7D1A2F14108B8F1190F00F2E4
S31508002FC0948041F002015FFA82F9AA690CF10108BE
S31508002FD002F80C901FFA88FC56E0BEF10B0F7AD067
S31508002FE0834259D046F0030656D2AB691A78E52AC9
S31508002FF002D105221A70AB69BEF1080F04BF890019
S31508003000C9B201F00C020C2A4ED001F003010329C3
S315080030104AD0B00707D4012908BF46F01006042A8B
S3150800302008BF46F00806DE7200212846FFF770FA48
S31508003030E8B92846FFF786FCAB69DB7AC8B95907B1
S315080030403FF54EAF6B69DA7AD20641D52A68D87E43
S3150800305011789A7E032942EA002205D1597D1B7D03
S3150800306043EA012342EA0342AA602378EFE6AB6902
S31508003070DB7A04287FF434AF13F0040F08BF052069
S31508003080BDE8F88346F0030637F8102075E7834253
S31508003090F8D1BEF10B0F1ED08900C9B218464FF001
S315080030A00B0E4FF0080CEFE746F00206BBE71C4490
S315080030B0042626E746F002064FF05F09AA690CF1D6
S315080030C0010802F80C9046F003061FFA88FCDBE7B5
S315080030D00520BDE8F883AB6946F003061A78E52AA9
S315080030E08FD105221A70AB698BE7A2F16108B8F196
S315080030F0190F97BF203A5FFA82F95FFA82F941F011
S31508003100010162E7AD5B0008B95B000810B584B041
S3150800311004AB43F8041D0190184614460091FEF7C7
S3150800312047FF021E14DB0F4951F822300BB100206D
S315080031301870019B3BB10020012C187041F8223011
S3150800314009D004B010BD184641F8223004B010BDAD
S315080031500B2004B010BD0246694601A8FFF720F807
S3150800316004B010BDD00000202DE9F0438FB00191C6
S3150800317040B3002304460360154605A802F01E0264
S3150800318001A9FFF70DF8064618B130460FB0BDE89D
S31508003190F083544A02AB019905A8CDE90B32FFF733
S315080031A045FE05F01F0805F01C0380B90A9F002F8D
S315080031B07ED0FA7A9BB112F0110F16D16B0773D530
S315080031C00826E2E7092630460FB0BDE8F0830BB1C2
S315080031D004280ED0064630460FB0BDE8F083D30665
S315080031E005D4A8073AD5D10738D50726CDE704264A
S315080031F0CBE705A8FFF76AFC48F008080A9F0028ED
S31508003200E8D1059B00224621212079747976BA7384
S31508003210FA73BA75FA75FA723A777A77BA77FA77E5
S31508003220387438761A78F97EBD7E032A45EA012570
S3150800323005D1797D3A7D42EA012245EA0245002216
S315080032400121BA76FA763A757A7519714DB18D42B9
S3150800325002D05A6995422DD3022696E72A07059B7E
S3150800326001D548F020080021DA6AE171C4E9072788
S3150800327084F806801978F87EBA7E032942EA002285
S3150800328005D1787D397D41EA002142EA0142226171
S31508003290F869DA880021E06030462360A280A160E0
S315080032A0A1610FB0BDE8F0832D07059BDBD5A9E723
S315080032B006266AE729461846D3F82C90FFF714FB2A
S315080032C0002887D1059B013DDA6ADD609145C8D0A3
S315080032D049461846FEF71EFF00287FF47BAF059B7C
S315080032E0BFE700BFD80000202DE9F04F9A4600231B
S315080032F083B0AAF80030884617460646FEF77AFED7
S31508003300814600284DD1F379002B4ED1B3799A071F
S3150800331040F1A580B268D7423CD2002F3AD04FF090
S31508003320010B0190C2F308033068002B42D0B5693F
S31508003330C16AC3F50074A4B2BC4228BF3C468D429C
S3150800334008D02946FEF7E6FE002869D1B26830683B
S31508003350C2F308032F3318444346621E92B2013261
S31508003360424413F8011B934200F8011FF9D1336850
S31508003370B26883F804B0BAF800303F1B22442344ED
S31508003380BFB2B260A044AAF80030002FCAD1DDF857
S315080033900490B379F16843F02003914238BFF26094
S315080033A0B371484603B0BDE8F08F9946484603B066
S315080033B0BDE8F08F8378013B03EA522313F0FF0937
S315080033C00DD1002A57D13269002A5FD0012A7BD055
S315080033D0531C25D031697261306801B93261C16AFE
S315080033E0B26991422DD075694269023D023A954209
S315080033F06AD28178826A05FB0125002D64D07C0A91
S315080034004D4415D009EB04028A42C4BFA1EB090456
S31508003410A4B2407823462A464146FEF735FC08B34F
S315080034204FF00109484686F8079003B0BDE8F08FCB
S31508003430D6E902239A420DD2C16AB561C2F30803DE
S3150800344077E70279002ACED0FEF7EAFD0028E7D111
S315080034503068C8E7037903BB2946C562EDE74FF034
S3150800346007099EE73268D36A5D1BA5421CD364022E
S31508003470A4B2B2687FE77169FFF738F90246002AF5
S31508003480A4D1DDF80490B268B37983E74946FFF71B
S315080034902DF90246002A99D1F3E7FEF7C1FD002867
S315080034A0BED13068B268D7E708EB45232F3203F55B
S315080034B0007013F8011B834202F8011FF9D14FF07F
S315080034C0000233681A71D2E74FF0020986F80790AE
S315080034D067E700BF70B50446FEF78CFD002836D1B5
S315080034E0A3799B0633D52068E169C36A994202D05D
S315080034F0FEF710FE58BB2126002146200125236A27
S31508003500DA7A42F02002DA72E2681A77A289120A97
S315080035105A77E2899A77E27BDA7722691E769A7673
S31508003520C2F30726120C1A75120A5876DE765A75F1
S315080035309975D9759974D974A379226823F02003EB
S31508003540A37115711046BDE87040FEF78FBD70BDBA
S3150800355010B50446FFF7BEFF00B110BD2046FEF7C2
S3150800356049FD0028F9D1206010BD00BFF8B50D4609
S315080035700446FEF73FFD0646002830D1E379002BC6
S315080035802FD1E368AB4204D2A27912F0020F08BF2A
S315080035901D460022A368A2600DB3206887787F02C3
S315080035A03BB1013B6A1EB3FBF7F1B2FBF7F28A4265
S315080035B054D22169002957D06161A9B9A368C3F318
S315080035C00802002A63D0A2698A42E26818BFA1618C
S315080035D09A4204D2A279E36042F02003A3713046EE
S315080035E0F8BD1E463046F8BDBD424ED92068A379BF
S315080035F0ED1B9A0707D4012902D943698B4229D8BA
S315080036000226E671EBE7FFF771F80146002839D084
S315080036104B1C32D00129F3D9206843698B42EFD974
S31508003620A368AF423B446161A360E0D32B44C5F372
S315080036300802A36022B320688F1E4269023A9742A5
S31508003640DED28178826A07FB01210029D8D001EBF6
S315080036505521B4E7FEF7EAFE0146D9E77A42134058
S31508003660A360ED1A6169A8E7FFF740F8012801464B
S31508003670C6D0013001D021619EE70126E671AEE78A
S3150800368011469CE73D46A368D0E7A368CEE7E26803
S315080036909EE700BF38B54FF47A730D490D4A09788D
S315080036A01268B3FBF1F30546B2FBF3F000F0F8FB42
S315080036B008B90F2D01D9012038BD0446024629460E
S315080036C04FF0FF3000F0A8FB034B20461D6038BDC5
S315080036D0050000200000002008000020074A08B561
S315080036E01368032043F01003136000F083FB0020E7
S315080036F0FFF7D0FFFDF73AFE002008BD0020024084
S31508003700034A044B11681B780B441360704700BFCB
S315080037101007002005000020014B1868704700BFFD
S315080037201007002038B50446FFF7F6FF631C054668
S3150800373002D0044B1B781C44FFF7EEFF401BA04247
S31508003740FAD338BD05000020704700BF436A9A6A5D
S3150800375012F0500F02D01B6A1B6B18479A6A196839
S3150800376042F4007210B59A628A6802F46022B2F5D1
S31508003770602F03D01846FFF7E7FF10BD1A7B002A13
S31508003780F8D19A6A22F480729A629A6AD204F1D4BB
S315080037909A6A42F001029A62ECE700BF704700BFDE
S315080037A008B5406AFFF7FAFF08BD00BF704700BFBB
S315080037B008B5436A9A6A184642F040029A62DA6A7B
S315080037C042F00402DA62FFF7F1FF08BD002270B486
S315080037D090F8243083B0012B01925FD001234D6805
S315080037E00468062D80F824300A6805EB85034FF037
S315080037F01F0625D90C2D47D8233B256B9E4025EA65
S31508003800060502FA03F32B432363092A8B684FF054
S31508003810070602EB420123D91E39E5688E408B4024
S3150800382025EA06010B43E360A2F11003012B22D916
S315080038300023002280F82420184603B070BC704785
S31508003840053B656B9E4025EA060502FA03F32B4302
S31508003850092A63634FF007068B6802EB4201DBD83F
S3150800386025698E408B4025EA06010B432361A2F1A8
S315080038701003012BDCD81A4B9C4214D0826A012310
S3150800388042F020028262D4E7413BE56A9E4025EA7F
S31508003890060502FA03F32B43E362B6E7022318464A
S315080038A003B070BC7047A3681B02C1D4A368102A72
S315080038B043F40003A360BBD10A4B0B4A1B68A2FB67
S315080038C003239B0C03EB83035B000193019B002BF3
S315080038D0AED0019B013B0193019B002BF9D1A7E7D1
S315080038E0002401400000002083DE1B43002370B53E
S315080038F0026882B001939368DB0721D4184B194CF0
S315080039001B689168A4FB034341F001019B0C91607D
S315080039100193019B2BB1019B013B0193019B002B5A
S31508003920F9D10546FFF7F8FE064604E0FFF7F4FE70
S31508003930801B022807D82B689C6814F00104F5D070
S31508003940002002B070BD0120AB6A85F8244043F020
S315080039501003AB62EB6A0343EB6202B070BD00BFB3
S315080039600000002083DE1B43F8B5404B04689C42E8
S3150800397016D003F580639C4212D090F82430012BB0
S3150800398063D0012380F8243017460E460446FFF715
S31508003990ADFF054660B10023284684F82430F8BDFB
S315080039A0324B5B6813F4702FE7D001252846F8BD23
S315080039B0A36A216823F470632D4A23F0010343F4B4
S315080039C080739142A36243D0A36A23F48013A3624F
S315080039D04B685A0505D5A36A23F4405343F480532C
S315080039E0A362A36A6FF0020213F4805318BFE36A56
S315080039F0206A18BF23F00603E3620023DFF878C0C5
S31508003A0084F824301B4B4C31C0E90AC3DFF86CC07C
S31508003A103B46C0F830C041F84C2C51F8447C32463D
S31508003A2047F4807741F8447C00F086FA22682846F5
S31508003A30936803F46023B3F5602F93680CBF43F4CF
S31508003A40A00343F480139360F8BD02252846F8BD09
S31508003A50064B5A6812F4702FB6D0A26A42F4801246
S31508003A60A2625B685B05BCD5B5E700BF00240140D0
S31508003A7000280140A13700084D370008B137000873
S31508003A8038B503689A68D20701D4002038BD9A6809
S31508003A90044622F001029A60FFF73EFE05462368B7
S31508003AA09B68DB07F1D5FFF737FE401B0228F6D9DE
S31508003AB00120A36A43F01003A362E36A0343E362A7
S31508003AC038BD00BF002857D0F8B5836A0446002BD6
S31508003AD045D02046FFF7D4FFA36A13F0100338D168
S31508003AE0002836D1A26AE669616822F48852A56878
S31508003AF022F00202277B42F002023143B5F5807FAD
S31508003B00A26241EA4701267D226837D0012D4FD0AF
S31508003B10012E52D055683C4B25F46945556005463B
S31508003B20966833400B439360D36A384E23F4700388
S31508003B302B43D36293681E40B14230D00120A36A5A
S31508003B4023F0120343F01003A362E36A0343E3621C
S31508003B50F8BDA36A012043F01003A362F8BDC3624F
S31508003B6080F82430FDF702F82046FFF789FFA36A9C
S31508003B7013F01003EDD1B3E701207047012E3FD0B3
S31508003B805568214B25F4694545F480755560956857
S31508003B902B400B4393602369013B1D05C4E70023B3
S31508003BA0E362A36A23F0030343F00103A362F8BDAB
S31508003BB0012E08BF4FF48073E2D1D7B1A66A46F04A
S31508003BC02006A662E66A46F00106E66257680E4EC9
S31508003BD027F469473B4353609368B5F5807F06EA47
S31508003BE0030646EA01069660D5D0012DD3D00025F6
S31508003BF09AE7A669013E43EA463343F40063E5E7DC
S31508003C002B46002FDAD1F4E7FDF7E1FFFE0E1FFF82
S31508003C10002270B590F8243082B0012B019253D05F
S31508003C20012380F824300446FFF72AFF054628B109
S31508003C300023284684F8243002B070BDA36A2B4AB4
S31508003C4023F4885323F0020343F00203A3620220FD
S31508003C50166800F0BFFEB6FBF0F040000190019B2D
S31508003C602BB1019B013B0193019B002BF9D1204607
S31508003C70FFF73CFE2268936843F008039360FFF75A
S31508003C804BFD064604E0FFF747FD801B0A281FD8B0
S31508003C9023689A681207F6D49A6842F004029A6072
S31508003CA0FFF73AFD064604E0FFF736FD801B0A28B3
S31508003CB00ED823689B685B07F6D4A36A23F0030330
S31508003CC043F00103A362B3E70225284602B070BD9C
S31508003CD0012500222846A36A84F8242023F012032B
S31508003CE043F01003A36202B070BD00BF00000020BD
S31508003CF000287DD090F8203070B50446002B74D08B
S31508003D002268136823F002031360FFF705FD0546D2
S31508003D1004E0FFF701FD401B0A285DD823685A68AE
S31508003D209107F6D41A6842F001021A60FFF7F4FC0C
S31508003D30054604E0FFF7F0FC401B0A284CD8236828
S31508003D405A68D207F6D5227E0025012A1A684FF04E
S31508003D5001060CBF42F0800222F080021A60627EE1
S31508003D60012A1A680CBF42F0400222F040021A608B
S31508003D70A27E012A1A680CBF42F0200222F0200215
S31508003D801A60E27E012A1A680CBF22F0100242F07D
S31508003D9010021A60227F012A1A680CBF42F0080234
S31508003DA022F008021A60627F012A1A680CBF42F0E4
S31508003DB0040222F004021A602169D4E902200243AF
S31508003DC00A4360696168024301390A43DA61284691
S31508003DD0656284F8206070BD0522636A012043F499
S31508003DE00033636284F8202070BDFCF73BFF87E749
S31508003DF0012070474FF6FF01064A0002D36800F417
S31508003E00E0600B4043F0BF6343F400330343D360E1
S31508003E10704700BF00ED00E0184B30B4DB68C3F311
S31508003E200223C3F10705042D03F1040428BF042562
S31508003E30062C19D94FF0FF34033B9C4022EA0404B0
S31508003E404FF0FF32AA4021EA020101FA03F22243A7
S31508003E5012010028D2B20ADB00F1604000F5614089
S31508003E6080F8002330BC704700242346E8E7044B5B
S31508003E7000F00F0003441A7630BC704700ED00E0EE
S31508003E80FCEC00E0002807DB012300F01F01034AD1
S31508003E908B40400942F82030704700BF00E100E03F
S31508003EA00138B0F1807F0DD230B4F0250022072109
S31508003EB0054B064C586084F82350104630BC9A606F
S31508003EC0196070470120704710E000E000ED00E03F
S31508003ED050B30246F0B4D0E9013600240125334335
S31508003EE0D6680068334311491669114F01443343B4
S31508003EF05669A7FB017133439669D7693343066848
S31508003F000909890026F47F563B4326F030061164DA
S31508003F1008493343D16303602046946382F82040FE
S31508003F2082F82150F0BC704701207047F8FFFDBFAA
S31508003F30CDCCCCCC00000240F0B590F82040012C46
S31508003F4032D0012490F8215080F82040A54225D18E
S31508003F5000264FF0020E046886632668076CD0F8C0
S31508003F603CC0BD4026F00106476880F821E026607F
S31508003F70CCF804506360C36A102F0BBFA260A1601F
S31508003F80E160E2609BB1236843F00E0323600023DF
S31508003F902268184642F001022260F0BD0022022380
S31508003FA080F820201846F0BD02231846F0BD236885
S31508003FB023F004032360236843F00A032360E6E73B
S31508003FC0042270B4D0E90F61346803688A4022423B
S31508003FD01D681FD06A071DD51A68910603D41A688A
S31508003FE022F004021A603F4A93425CD0143293428C
S31508003FF061D01432934268D0143293426BD0143293
S3150800400093425DD0143293420CBF4FF480034FF0B5
S31508004010806349E002228A40224222D0AA0720D59C
S315080040201A68910606D401211A6822F00A021A6053
S3150800403080F821102B4A93422BD01432934242D057
S315080040401432934244D01432934236D014329342F7
S3150800405044D0143293420CBF4FF400134FF0007350
S3150800406018E008228A4022421BD02A0719D50122C5
S3150800407000251C6802FA01F124F00E041C60036B8B
S315080040807160826380F8212080F820504BB170BCA3
S31508004090184702230021144C826A636080F82010B6
S315080040A03AB970BC704704230F49C26A4B60002AAC
S315080040B0F7D070BC10474023F6E74FF40053E9E702
S315080040C04FF48023F0E72023E4E74FF48063EBE71F
S315080040D04FF40073DEE74FF48043E5E74FF400330F
S315080040E0D8E700BF08000240000002400A68002A1C
S315080040F000F0DC802DE9F04F4FF0000A85B05546F8
S31508004100DFF8D0C1DFF8D0E16D4FDFF8D08103E0EA
S31508004110013532FA05F379D00123AB4002EA0304EC
S31508004120A342F5D14A68122A00F09F8000F28880DF
S31508004130022A00F09E807DD9032A6AD0112A02D16C
S31508004140CB6803F1040AFF2C67D881460368AA00E6
S315080041500F2606FA02FB23EA0B030AFA02F21343B6
S31508004160C9F800304A68D30062D5DCF8189025F003
S31508004170030349F00109CCF81890DCF8189003F10C
S31508004180804309F00109CDF80C9003F5803305F05A
S315080041900309DDF80CB04FEA8909D3F808B006FA26
S315080041A009F62BEA06067045019611D0404564D0FB
S315080041B0444EB0427BD0444EB0420CBF4FF0030B86
S315080041C04FF0040B019E0BFA09F946EA0906019617
S315080041D0019E9E603B68D6034CBF2343A3433B60C6
S315080041E07B6896034CBF2343A3437B60BB68D60218
S315080041F04CBF2343A343BB609202FB6815D51C43FF
S31508004200FC600A68013532FA05F385D105B0BDE8C8
S31508004210F08FFF2C4FF0000A97D905F18042083A33
S315080042204368920000F1040992E723EA0404FC605B
S315080042300A686DE7A2B1012A85D1D1F80CA082E7F8
S31508004240224EB2420CD020D9214EB24208D006F5F1
S315080042508036B24204D0A6F58016B2427FF473AF18
S315080042608A68E2B94FF0040A6DE7CB6803F10C0AD5
S3150800427069E7CB6803F1080A65E74FF0010B0BFA0B
S3150800428009F946EA09060196A2E7A6F58016B2429A
S31508004290E6D006F58036B2427FF455AFE0E7012A4C
S315080042A00CBF036143614FF0080A4CE770474FF0B3
S315080042B0020B019E0BFA09F946EA0906019687E7F9
S315080042C000040140001001400014014000002110C4
S315080042D0000031100010024000080140000C0140A7
S315080042E002B9090401617047C3680B4214BF4161F2
S315080042F001617047002800F055812DE9F0410368F7
S3150800430082B0DD07044635D5A8494A6802F00C0292
S31508004310042A00F005814A6802F00C02082A00F017
S31508004320FB806368B3F5803F10D0002B00F0208136
S31508004330B3F5A02F00F078819C4B1A6822F48032DE
S315080043401A601A6822F480221A6004E0974A1368F1
S3150800435043F480331360FFF7DFF9944D064605E012
S31508004360FFF7DAF9801B642800F2F5802B689A03B8
S31508004370F6D523689F074DD41A0722D5A369002BC3
S3150800438000F0BA8001228A4B884D1A60FFF7C4F9FB
S31508004390064605E0FFF7C0F9801B022800F2DB801D
S315080043A06B6A9B07F6D5834B834A1B68A2FB0323DC
S315080043B05B0A019300BF019B5A1E0192002BF9D19B
S315080043C023685D0769D5794BDA69D00000F1EC807E
S315080043D00125DA6942F08052DA61DB6903F080531D
S315080043E00093009B754B1A68D10540F1A380E368DA
S315080043F0012B37D0002B00F0E780052B6B4B1A6A90
S3150800440000F01F8122F001021A621A6A22F00402E1
S315080044101A622CE0654A516811F00C0F61D0516898
S3150800442001F00C01082959D02369002B00F0EB8014
S315080044300122634B5D4D1A60FFF76EF9064605E0EB
S31508004440FFF76AF9801B022800F285802B68980717
S31508004450F6D52B68626923F0F80343EAC2032B609A
S31508004460236889E7514A136A43F001031362FFF789
S3150800447053F94E4E804641F2883705E0FFF74CF96E
S31508004480A0EB0800B84266D8336A9B07F6D525B173
S31508004490464AD36923F08053D361E069D0B1434DCE
S315080044A06A6802F00C02082A00F0D38002284FF04E
S315080044B00001444A00F0DE801160FFF72DF92C4612
S315080044C0054604E0FFF728F9401B022843D823686D
S315080044D09B01F7D4002002B0BDE8F0815268D603EC
S315080044E0A2D4324A1268950739D52269012A36D0EC
S315080044F0012002B0BDE8F0812D4A2C4D1360FFF76C
S315080045000BF9064604E0FFF707F9801B022822D8B4
S315080045106B6A9F07F7D453E74A68D0037FF501AF64
S31508004520224A126891037FF525AF6268002A7FF454
S3150800453021AFDDE71A681E4642F480721A60FFF75B
S31508004540EBF807463368DA053FF551AFFFF7E4F8AD
S31508004550C01B6428F6D9032002B0BDE8F0811349D0
S3150800456060690A6822F0F80242EAC0020A6003E7B4
S3150800457003F1804303F504331A681D4622F480329A
S315080045801A601A6822F480221A60FFF7C5F80646F0
S3150800459004E0FFF7C1F8801B6428DCD82B689B036E
S315080045A0F7D4E6E60120704700251BE70010024015
S315080045B08004424200000020D34D62100070004083
S315080045C0000042426000424203F1804303F504338F
S315080045D01A6A1E4622F001021A621A6A41F28838DD
S315080045E022F004021A62FFF797F8074604E0FFF77D
S315080045F093F8C01B4045AED8336A9807F7D4002D08
S315080046003FF44BAF44E7344A344D1360FFF784F860
S31508004610064604E0FFF780F8801B02289BD82B6823
S315080046209907F7D42368A7E603F18043A3F53C333B
S315080046301A6842F480221A601A6842F480321A60B4
S3150800464089E642F004021A621A6A42F001021A6204
S315080046500DE701283FF44DAF6B68226A03F48031F9
S3150800466091427FF445AF606A03F47013181A18BFB5
S3150800467001203EE71160FFF74FF8064605E0FFF711
S315080046804BF8801B02283FF666AF2B689901F6D4D3
S31508004690226AB2F5803F05D16B68A16823F400331E
S315080046A00B436B6001250D4B606A5968024321F480
S315080046B074110B480A435A6005601C46FFF72CF82C
S315080046C0054605E0FFF728F8401B02283FF643AFEA
S315080046D023689A01F6D5FDE6000042420010024022
S315080046E06000424240F2012286B0154B0DF1180CCB
S315080046F0ADF804200FCB0CE90F0012494B6803F004
S315080047000C02082A02D0104806B07047C3F3834249
S315080047106244DB0312F8102C04D40C4800FB02F0A8
S3150800472006B070474B680848C3F3404300FB02F0E5
S31508004730634413F8143CB0FBF3F006B0704700BFAF
S315080047402C5B00080010024000127A0000093D00A8
S3150800475078B14A4A136803F007038B420BD21368F1
S3150800476023F007030B431360136803F007038B4218
S3150800477001D00120704703682DE9F0419D0714D543
S315080047805C0704D53E4C626842F4E06262601A0730
S3150800479004D53B4C626842F460526260384C8568C6
S315080047A0626822F0F0022A436260DF0704460D467B
S315080047B020D54268324B012A1B6856D0022A59D0A6
S315080047C0990727D52E4E41F28838736823F00303DC
S315080047D013437360FEF7A0FF074604E0FEF79CFF4D
S315080047E0C01B404544D87368626803F00C03B3EBFA
S315080047F0820FF3D1214A136803F00703AB420CD9A1
S31508004800136823F007032B431360136803F00703A9
S31508004810AB4202D00120BDE8F08123685A0706D5CD
S315080048201749E0684A6822F4E06202434A601B07B7
S3150800483012D4FFF757FF124B124A5B681249C3F3AB
S315080048400313D35C114A20FA03F308681360FEF7D2
S3150800485021FF0020BDE8F081094A2169536823F445
S31508004860605343EAC1035360E3E79E03AAD4D1E742
S315080048700320EFE79801A5D4CCE700BF002002404B
S3150800488000100240845B0008080000200000002099
S31508004890044B05495B68054AC3F30223CB5C1068E1
S315080048A0D840704700100240945B000800000020C2
S315080048B0044B05495B68054AC3F3C223CB5C106801
S315080048C0D840704700100240945B000800000020A2
S315080048D02DE9F0410446006882B0C5072AD53A4B4F
S315080048E0DA69D1003DD5394B00251A68D20546D577
S315080048F0354960680A6A12F440720FD000F44073B2
S3150800490093420BD0012700260B6A314A23F44070E4
S31508004910176016600862D80745D460682A4A136A81
S3150800492023F44073034313621DB1D36923F0805304
S31508004930D3612068830706D5234AA168536823F400
S3150800494040430B43536010F0100007D000201E4A66
S31508004950E168536823F480030B43536002B0BDE853
S31508004960F081DA69012542F08052DA61DB6903F0E9
S3150800497080530193019B154B1A68D205B8D41A685F
S315080049801E4642F480721A60FEF7C6FE0746336872
S31508004990DB05ADD4FEF7C0FEC01B6428F7D903209B
S315080049A002B0BDE8F0810E46FEF7B6FE41F2883742
S315080049B08046336A9A07B0D4FEF7AEFEA0EB08002D
S315080049C0B842F6D9EBE700BF00100240007000407D
S315080049D04004424210B5044640F2012286B0344BE8
S315080049E00DF1180C022CADF804200FCB0CE90F00C2
S315080049F042D0102C1CD0012C02D0002006B010BDCD
S31508004A0040F202322B490B6A1A40B2F5817F4BD02D
S31508004A1003F44073B3F5007F3AD0B3F5407FECD189
S31508004A200B684FF2244013F4003F08BF0020E5E767
S31508004A30204B5968186810F08070DFD006A8C1F3BB
S31508004A408342024412F8100CCA0329D55B6806A9EA
S31508004A50C3F340430B44184A13F8143CB2FBF3F370
S31508004A6000FB03F0134B5B685B02C7D4134B400093
S31508004A70A3FB00304008C1E7FFF71AFF0D4B5B6840
S31508004A80C3F3813301335B00B0FBF3F006B010BD0E
S31508004A904B6A49F6404013F0020F08BF0020ADE705
S31508004AA0074B03FB00F0DDE74FF40040A6E700BF25
S31508004AB03C5B00080010024000127A00ABAAAAAAC2
S31508004AC000093D002DE9F04107460D461646984671
S31508004AD03C6801E0731C06D1A06835EA0003F9D0EA
S31508004AE00020BDE8F081FEF717FEA0EB080086421D
S31508004AF0EED8D7E900315A68B1F5827F22F0E00294
S31508004B005A6014D0BA6AB2F5005F07D001220023B2
S31508004B1087F8512087F850300320E2E71A6822F414
S31508004B2000521A601A6842F400521A60EEE7BA6830
S31508004B30B2F5004F02D0B2F5806FE3D11A6822F0C1
S31508004B4040021A60DEE700BF2DE9F0430446012063
S31508004B5083B084F85000914698460F460A9DFEF7A2
S31508004B60DBFD94F851200646D2B2012A636811D0BB
S31508004B70B3F5827F09D002200122002384F8512050
S31508004B8084F8503003B0BDE8F083A1680029F2D15B
S31508004B90042AF0D1002F64D0B9F1000F61D0B8F122
S31508004BA0000F5ED094F851202168042A1CBF052204
S31508004BB084F8512000226265A4F83E80A4F8368065
S31508004BC00868C4F838904006A4F83C802763A4F81F
S31508004BD03480C4E9102246D5E268B2F5006F5AD08F
S31508004BE0002B45D13B780B73E38E226B013B9BB2BE
S31508004BF00132E38622630127E28E92B21AB9E38F65
S31508004C009BB2002B38D02268936898070FD5E38E9D
S31508004C109BB263B15FB10027236B1B781373E38ED6
S31508004C20226B013B511C9BB22268E3862163936881
S31508004C30D9070DD5E38F9BB253B10127D268A36B71
S31508004C401A70E38FA26B013B9BB23A44E387A263D7
S31508004C50FEF762FD801B8542CED86B1CCCD00320A4
S31508004C608AE7012088E70A6842F040020A60B3E74B
S31508004C70B8F1010FBFD1B5E733462A468021204651
S31508004C80FFF720FF002846D02022636D012013433A
S31508004C906365626570E7002B34D0B8F1010F31D037
S31508004CA00127E38E9BB21BB9E38F9BB2002BE3D09F
S31508004CB023689A6891070DD5E28E92B252B14FB128
S31508004CC00027216B31F8022BDA60E28E2163013A64
S31508004CD092B2E2869A68D2070CD5E28F92B24AB1AE
S31508004CE00127DB68A26B22F8023BE38FA263013B34
S31508004CF09BB2E387FEF710FD801BA842D1D36B1C3D
S31508004D00CFD0ACE737F8023BCB60E38E2763013B95
S31508004D109BB2E386C4E7A368002B7FF42DAF236814
S31508004D200190DA6801929B680193019B24E700BF12
S31508004D3000283BD0F8B5002390F85110044683624A
S31508004D4001F0FF0261B31A46D4E9013602270021B1
S31508004D500125E06833432669034360693343E669FE
S31508004D60D4F818C00343206A3343266884F8517080
S31508004D7003430CF40070034330684FEA1C4C13439A
S31508004D8020F040000CF00402306033607260F36972
S31508004D90084623F40063F361616584F85150F8BD51
S31508004DA080F85020FCF7A8FAA26ACDE701207047E0
S31508004DB010B490F85040012C02D010BCFFF7C4BEC6
S31508004DC0022010BC704700BF0368DA6842F001028F
S31508004DD0DA609A6802F00702062A03D01A6842F0D7
S31508004DE001021A600020704790F83C30012B5AD017
S31508004DF00222F0B40125036880F83D209A680C6801
S31508004E0022F47F4222F07702402C80F83C509A60C8
S31508004E1074D04AD9602C2DD056D9702C1AD0B4F536
S31508004E20005F0ED1D1E90152CC6899682A4342EA5B
S31508004E30042221F47F410A439A609A6842F4804228
S31508004E409A600023F0BC012280F83C3080F83D20AF
S31508004E5018467047D1E90152CC6899682A4342EA54
S31508004E60042221F47F410A439A609A6842F0770245
S31508004E709A60E6E71C6A4D6824F01004CE681C6246
S31508004E8099691A6A21F4704122F0A00242EA0512D1
S31508004E9041EA063199611A629A6822F0700242F074
S31508004EA067029A60CDE702207047102C04D03DD9DE
S31508004EB0202C01D0302CC4D19A6844F0070422F083
S31508004EC0700214439C60BCE7502CBAD11D6A1E6A56
S31508004ED04C6826F00106CF681E629A6925F00A0119
S31508004EE022F0F00242EA071221439A6119629A688F
S31508004EF022F0700242F057029A60A2E71D6A1E6A03
S31508004F004C6826F00106CF681E629A6925F00A01E8
S31508004F1022F0F00242EA071221439A6119629A685E
S31508004F2022F0700242F047029A608AE7002CC3D04A
S31508004F3087E700BF704700BF704700BF704700BFD4
S31508004F40704700BF036810B51A690446910702D571
S31508004F50DA6892075FD41A69500702D5DA685107EA
S31508004F6046D41A69120702D5DA6810072ED41A69C8
S31508004F70D20602D5DA68D00618D41A69D10702D53E
S31508004F80DA68D2075DD41A69100602D5DA681106FE
S31508004F905FD41A69520602D5DA68500661D41A69CE
S31508004FA0910602D5DA68920643D410BD6FF0100157
S31508004FB008221961DB69204613F4407F227764D002
S31508004FC0FFF7BAFF002223682277D6E76FF00801B9
S31508004FD004221961DB6920469907227752D1FFF727
S31508004FE0A9FF2046FFF7AAFF002223682277BEE71B
S31508004FF06FF00401022219619B69204613F4407F71
S3150800500022773CD1FFF796FF2046FFF797FF00224D
S3150800501023682277A5E76FF00201012219619B69CF
S3150800502002779B0725D0FFF787FF002223682277A0
S3150800503091E76FF020022046BDE810401A6100F0A3
S31508005040A5B86FF0010220461A61FCF785F82368B7
S3150800505099E76FF0800220461A6100F099F82368F4
S3150800506097E76FF0400220461A61FFF769FF236849
S3150800507095E7FFF75FFF2046FFF760FFD5E7FFF7E5
S315080050805BFFC4E7FFF758FFAEE7FFF753FF20467D
S31508005090FFF754FF96E700BF70B41C4E0368B04292
S315080050A04D698C680A681DD0B0F1804F11D0A6F5FD
S315080050B09436B0420DD006F58066B04209D023F08A
S315080050C080032B4303600123C462826270BC436180
S315080050D070474E6823F070033343C96823F440735E
S315080050E00B43ECE74E6823F070033343CE6823F492
S315080050F04073334323F080032B430360C462826208
S315080051000B6970BC0363012343617047002C01409F
S31508005110B8B190F83D3010B503F0FF0204465BB114
S315080051200223206884F83D30211DFFF7B5FF0123CF
S31508005130002084F83D3010BD80F83C20FCF7D4F9F7
S31508005140EEE70120704700BF90F83C20012A1AD0EC
S315080051500222F0B4034600250126046880F83D20A3
S315080051606068D1E9002720F070011143A26828463B
S3150800517022F080023A436160A26083F83D6083F8BA
S315080051803C50F0BC70470220704700BF704700BF14
S31508005190704700BF38B504460368C0681969A26835
S315080051A021F4405101431961D968D4E9045021F426
S315080051B0B0512A4321F00C0102430A43DA605A69C6
S315080051C0A069124922F4407202438B425A611AD0EE
S315080051D0FFF75EFB636800EB80009B0000EB800036
S315080051E0B0FBF3F064230A492468A1FB0052520974
S315080051F003FB12031B013233A1FB0313120102EB5B
S315080052005313A36038BDFFF753FBE3E700380140AB
S315080052101F85EB5160B338B590F83930044603F072
S31508005220FF0203B32423226884F83930D368204662
S3150800523023F40053D360FFF7ADFF00252021236830
S3150800524028461A6922F490421A615A6922F02A02FB
S315080052505A61DA6842F40052DA60E56384F8391074
S3150800526084F83A1038BD80F83820FCF795F9D9E764
S3150800527001207047014B1868704700BF0C000020DA
S3150800528070B500250C4E0D4CA41BA410A54209D1DF
S3150800529000F034FC00250A4E0A4CA41BA410A542B3
S315080052A005D170BD56F8253098470135EEE756F812
S315080052B0253098470135F2E7F45B0008F45B0008EF
S315080052C0F45B0008F85B000803460244934200D1E9
S315080052D0704703F8011BF9E70EB46FF0004100B5FB
S315080052E09CB01DAB029006900791049108480949A5
S315080052F053F8042B0591006802A9019300F066F89B
S315080053000022029B1A701CB05DF804EB03B07047CC
S315080053100C0000200802FFFF2DE9F0478E68824640
S315080053209E420C469046994637D88A8912F4906F61
S3150800533031D00223256809696F1A656905EB4505A9
S3150800534095FBF3F509F101033B449D4238BF1D4621
S31508005350530530D5294600F037FB064650B90C23CD
S315080053604FF0FF30CAF80030A38943F04003A38109
S31508005370BDE8F0873A46216900F0B6FAA38923F416
S31508005380906343F08003A38126613E4426604E461F
S315080053906561ED1BA5604E4500D94E46324641462D
S315080053A0206800F0ACFAA36800209B1BA360236862
S315080053B01E442660DCE72A4600F060FB0646002805
S315080053C0E2D12169504600F0B3FAC8E72DE9F04F5B
S315080053D01D468B899DB01F0680460C4616460FD57E
S315080053E00B696BB9402100F0EFFA2060206128B9FB
S315080053F00C23C8F800304FF0FF30C8E04023636143
S315080054000023099320238DF8293030234FF0010B10
S315080054108DF82A30039537463D4615F8013B0BB102
S31508005420252B3ED1B7EB060A0BD05346324621460A
S315080054304046FFF771FF013000F0A480099B5344F2
S3150800544009933B78002B00F09D8000234FF0FF3234
S31508005450CDE90523049307938DF853301A932F4605
S31508005460052217F8011B504800F030FA049BD0B902
S31508005470D90644BF20228DF853201A0744BF2B2291
S315080054808DF853202A782A2A15D02F4600200A2577
S31508005490079A394611F8013B303B092B4DD9B8B16B
S315080054A00FE02F46B8E7404A3D46801A0BFA00F04F
S315080054B018430490D3E7039A111D12680391002A32
S315080054C001DB079204E0524243F002030792049379
S315080054D03B782E2B0CD17B782A2B33D1039B0237B2
S315080054E01A1D1B680392002BB8BF4FF0FF330593B4
S315080054F02E4D03223978284600F0E8F938B14023C2
S31508005500401B03FA00F0049B0137034304933978E0
